******************************************************************************
                  TI ARM Linker PC v18.1.1                     
******************************************************************************
>> Linked Wed Oct 23 17:24:25 2019

OUTPUT FILE NAME:   <326_Lab5_Part1.out>
ENTRY POINT SYMBOL: "_c_int00_noargs"  address: 00002cfd


MEMORY CONFIGURATION

         name            origin    length      used     unused   attr    fill
----------------------  --------  ---------  --------  --------  ----  --------
  MAIN                  00000000   00040000  00003180  0003ce80  R  X
  INFO                  00200000   00004000  00000000  00004000  R  X
  SRAM_CODE             01000000   00010000  000009f6  0000f60a  RW X
  SRAM_DATA             20000000   00010000  000009f6  0000f60a  RW  


SEGMENT ALLOCATION MAP

run origin  load origin   length   init length attrs members
----------  ----------- ---------- ----------- ----- -------
00000000    00000000    00003180   00003180    r-x
  00000000    00000000    000000e4   000000e4    r-- .intvecs
  000000e4    000000e4    00002f2c   00002f2c    r-x .text
  00003010    00003010    00000110   00000110    r-- .const
  00003120    00003120    00000060   00000060    r-- .cinit
20000000    20000000    000007f9   00000000    rw-
  20000000    20000000    00000400   00000000    rw- .sysmem
  20000400    20000400    00000209   00000000    rw- .bss
  2000060c    2000060c    000001ed   00000000    rw- .data
2000fe00    2000fe00    00000200   00000000    rw-
  2000fe00    2000fe00    00000200   00000000    rw- .stack


SECTION ALLOCATION MAP

 output                                  attributes/
section   page    origin      length       input sections
--------  ----  ----------  ----------   ----------------
.intvecs   0    00000000    000000e4     
                  00000000    000000e4     startup_msp432p401r_ccs.obj (.intvecs:retain)

.text      0    000000e4    00002f2c     
                  000000e4    00000a5e     rtsv7M4_T_le_v4SPD16_eabi.lib : _printfi.c.obj (.text:__TI_printfi)
                  00000b42    00000002                                   : _lock.c.obj (.text:_nop)
                  00000b44    000005e4     main.obj (.text)
                  00001128    00000270     rtsv7M4_T_le_v4SPD16_eabi.lib : _printfi.c.obj (.text:_pconv_a)
                  00001398    000001d0                                   : _printfi.c.obj (.text:_pconv_g)
                  00001568    000001b6                                   : fd_add_t2.asm.obj (.text)
                  0000171e    00000002                                   : div0.asm.obj (.text)
                  00001720    0000013c                                   : _printfi.c.obj (.text:_pconv_e)
                  0000185c    00000136                                   : fd_div_t2.asm.obj (.text)
                  00001992    00000002     --HOLE-- [fill = 0]
                  00001994    00000120                                   : _printfi.c.obj (.text:fcvt)
                  00001ab4    00000114                                   : fputs.c.obj (.text:fputs)
                  00001bc8    00000110                                   : s_scalbn.c.obj (.text:scalbn)
                  00001cd8    000000fc                                   : fd_mul_t2.asm.obj (.text)
                  00001dd4    000000dc                                   : setvbuf.c.obj (.text:setvbuf)
                  00001eb0    000000d8                                   : memory.c.obj (.text:free)
                  00001f88    000000b1                                   : _printfi.c.obj (.text:_ltostr)
                  00002039    00000001     --HOLE-- [fill = 0]
                  0000203a    0000009c                                   : memcpy_t2.asm.obj (.text)
                  000020d6    00000096                                   : ull_div_t2.asm.obj (.text)
                  0000216c    0000008c                                   : fputc.c.obj (.text:fputc)
                  000021f8    00000086                                   : fd_cmp_t2.asm.obj (.text:__aeabi_cdcmple)
                  0000227e    00000086                                   : fd_cmp_t2.asm.obj (.text:__aeabi_cdrcmple)
                  00002304    0000007a                                   : memset_t2.asm.obj (.text)
                  0000237e    00000002     --HOLE-- [fill = 0]
                  00002380    00000078                                   : memory.c.obj (.text:malloc)
                  000023f8    00000074                                   : fclose.c.obj (.text:__TI_closefile)
                  0000246c    0000006e                                   : _printfi.c.obj (.text:_mcpy)
                  000024da    00000002     --HOLE-- [fill = 0]
                  000024dc    00000068                                   : hostlseek.c.obj (.text:HOSTlseek)
                  00002544    00000068                                   : hostrename.c.obj (.text:HOSTrename)
                  000025ac    00000068                                   : copy_decompress_lzss.c.obj (.text:decompress:lzss:__TI_decompress_lzss)
                  00002614    00000068                                   : printf.c.obj (.text:printf)
                  0000267c    00000064                                   : s_frexp.c.obj (.text:frexp)
                  000026e0    00000064                                   : fseek.c.obj (.text:fseek)
                  00002744    00000062                                   : _io_perm.c.obj (.text:__TI_wrt_ok)
                  000027a6    00000002     --HOLE-- [fill = 0]
                  000027a8    00000060                                   : hostopen.c.obj (.text:HOSTopen)
                  00002808    0000005c                                   : close.c.obj (.text:close)
                  00002864    00000058                                   : hostread.c.obj (.text:HOSTread)
                  000028bc    00000058                                   : hostwrite.c.obj (.text:HOSTwrite)
                  00002914    00000056                                   : _printfi.c.obj (.text:_pconv_f)
                  0000296a    00000054                                   : ltoa.c.obj (.text:ltoa)
                  000029be    00000052                                   : _printfi.c.obj (.text:_ecpy)
                  00002a10    0000004c                                   : fflush.c.obj (.text:__TI_doflush)
                  00002a5c    0000004c                                   : atoi.c.obj (.text:atoi)
                  00002aa8    00000048                                   : exit.c.obj (.text:exit)
                  00002af0    00000048                                   : fd_toi_t2.asm.obj (.text)
                  00002b38    00000044                                   : hostclose.c.obj (.text:HOSTclose)
                  00002b7c    00000044                                   : hostunlink.c.obj (.text:HOSTunlink)
                  00002bc0    00000044                                   : autoinit.c.obj (.text:__TI_auto_init_nobinit_nopinit:__TI_auto_init_nobinit_nopinit)
                  00002c04    00000044                                   : getdevice.c.obj (.text:getdevice)
                  00002c48    0000003e                                   : _printfi.c.obj (.text:_fcpy)
                  00002c86    00000002     --HOLE-- [fill = 0]
                  00002c88    0000003c                                   : memory.c.obj (.text:minsert)
                  00002cc4    00000038                                   : trgmsg.c.obj (.text:__TI_writemsg)
                  00002cfc    00000038                                   : boot_cortex_m.c.obj (.text:_c_int00_noargs:_c_int00_noargs)
                  00002d34    00000038                                   : memory.c.obj (.text:minit)
                  00002d6c    00000036                                   : strncpy.c.obj (.text:strncpy)
                  00002da2    00000002     --HOLE-- [fill = 0]
                  00002da4    00000034                                   : fopen.c.obj (.text:__TI_cleanup)
                  00002dd8    00000034                                   : trgmsg.c.obj (.text:__TI_readmsg)
                  00002e0c    00000030                                   : getdevice.c.obj (.text:finddevice)
                  00002e3c    0000002e                                   : i_tofd_t2.asm.obj (.text)
                  00002e6a    00000002     --HOLE-- [fill = 0]
                  00002e6c    0000002c                                   : unlink.c.obj (.text:unlink)
                  00002e98    00000028                                   : lseek.c.obj (.text:lseek)
                  00002ec0    00000028                                   : memory.c.obj (.text:mremove)
                  00002ee8    00000028                                   : write.c.obj (.text:write)
                  00002f10    00000020                                   : memchr.c.obj (.text:memchr)
                  00002f30    0000001c                                   : memccpy.c.obj (.text:memccpy)
                  00002f4c    00000018                                   : strcmp.c.obj (.text:strcmp)
                  00002f64    00000016                                   : strchr.c.obj (.text:strchr)
                  00002f7a    00000014                                   : s_copysign.c.obj (.text:copysign)
                  00002f8e    00000014                                   : strcpy.c.obj (.text:strcpy)
                  00002fa2    00000014                                   : strlen.c.obj (.text:strlen)
                  00002fb6    00000012                                   : copy_zero_init.c.obj (.text:decompress:ZI:__TI_zero_init_nomemset:__TI_zero_init_nomemset)
                  00002fc8    00000012                                   : wcslen.c.obj (.text:wcslen)
                  00002fda    0000000e                                   : copy_decompress_none.c.obj (.text:decompress:none:__TI_decompress_none)
                  00002fe8    0000000e     startup_msp432p401r_ccs.obj (.text)
                  00002ff6    00000002     --HOLE-- [fill = 0]
                  00002ff8    00000008     rtsv7M4_T_le_v4SPD16_eabi.lib : errno.c.obj (.text:__aeabi_errno_addr)
                  00003000    00000004                                   : printf.c.obj (.text:_outc)
                  00003004    00000004                                   : printf.c.obj (.text:_outs)
                  00003008    00000004                                   : pre_init.c.obj (.text:_system_pre_init)
                  0000300c    00000004                                   : exit.c.obj (.text:abort:abort)

.const     0    00003010    00000110     
                  00003010    00000101     rtsv7M4_T_le_v4SPD16_eabi.lib : ctype.c.obj (.const:.string:_ctypes_)
                  00003111    0000000f     main.obj (.const:.string:$P$T0$1)

.cinit     0    00003120    00000060     
                  00003120    0000003a     (.cinit..data.load) [load image, compression = lzss]
                  0000315a    00000002     --HOLE-- [fill = 0]
                  0000315c    0000000c     (__TI_handler_table)
                  00003168    00000008     (.cinit..bss.load) [load image, compression = zero_init]
                  00003170    00000010     (__TI_cinit_table)

.init_array 
*          0    00000000    00000000     UNINITIALIZED

.binit     0    00000000    00000000     

.sysmem    0    20000000    00000400     UNINITIALIZED
                  20000000    00000008     rtsv7M4_T_le_v4SPD16_eabi.lib : memory.c.obj (.sysmem)
                  20000008    000003f8     --HOLE--

.bss       0    20000400    00000209     UNINITIALIZED
                  20000400    00000120     rtsv7M4_T_le_v4SPD16_eabi.lib : trgmsg.c.obj (.bss:_CIOBUF_)
                  20000520    000000a0     (.common:__TI_tmpnams)
                  200005c0    00000038     (.common:input)
                  200005f8    00000008     (.common:parmbuf)
                  20000600    00000008     (.common:timeDateReadback)
                  20000608    00000001     (.common:num)

.data      0    2000060c    000001ed     UNINITIALIZED
                  2000060c    000000f0     rtsv7M4_T_le_v4SPD16_eabi.lib : defs.c.obj (.data:_ftable)
                  200006fc    00000078                                   : write.c.obj (.data:_device)
                  20000774    00000050                                   : write.c.obj (.data:_stream)
                  200007c4    00000010                                   : defs.c.obj (.data)
                  200007d4    0000000c                                   : exit.c.obj (.data:$O1$$)
                  200007e0    0000000c                                   : memory.c.obj (.data:$O1$$)
                  200007ec    00000008                                   : _lock.c.obj (.data:$O1$$)
                  200007f4    00000004                                   : errno.c.obj (.data)
                  200007f8    00000001     main.obj (.data)

.stack     0    2000fe00    00000200     UNINITIALIZED
                  2000fe00    00000004     rtsv7M4_T_le_v4SPD16_eabi.lib : boot_cortex_m.c.obj (.stack)
                  2000fe04    000001fc     --HOLE--

MODULE SUMMARY

       Module                        code    ro data   rw data
       ------                        ----    -------   -------
    .\
       main.obj                      1508    15        132    
       startup_msp432p401r_ccs.obj   14      228       0      
    +--+-----------------------------+-------+---------+---------+
       Total:                        1522    243       132    
                                                              
    C:\ti\ccsv7\tools\compiler\ti-cgt-arm_18.1.1.LTS\lib\rtsv7M4_T_le_v4SPD16_eabi.lib
       _printfi.c.obj                4863    0         0      
       defs.c.obj                    0       0         832    
       trgmsg.c.obj                  108     0         576    
       memory.c.obj                  492     0         24     
       write.c.obj                   40      0         400    
       fd_add_t2.asm.obj             438     0         0      
       fd_div_t2.asm.obj             310     0         0      
       fputs.c.obj                   276     0         0      
       s_scalbn.c.obj                272     0         0      
       fd_cmp_t2.asm.obj             268     0         0      
       ctype.c.obj                   0       257       0      
       fd_mul_t2.asm.obj             252     0         0      
       setvbuf.c.obj                 220     0         0      
       memcpy_t2.asm.obj             156     0         0      
       ull_div_t2.asm.obj            150     0         0      
       fputc.c.obj                   140     0         0      
       memset_t2.asm.obj             122     0         0      
       fclose.c.obj                  116     0         0      
       getdevice.c.obj               116     0         0      
       hostopen.c.obj                96      0         16     
       printf.c.obj                  112     0         0      
       copy_decompress_lzss.c.obj    104     0         0      
       hostlseek.c.obj               104     0         0      
       hostrename.c.obj              104     0         0      
       exit.c.obj                    76      0         24     
       fseek.c.obj                   100     0         0      
       s_frexp.c.obj                 100     0         0      
       _io_perm.c.obj                98      0         0      
       close.c.obj                   92      0         0      
       hostread.c.obj                88      0         0      
       hostwrite.c.obj               88      0         0      
       ltoa.c.obj                    84      0         0      
       atoi.c.obj                    76      0         0      
       fflush.c.obj                  76      0         0      
       fd_toi_t2.asm.obj             72      0         0      
       autoinit.c.obj                68      0         0      
       hostclose.c.obj               68      0         0      
       hostunlink.c.obj              68      0         0      
       boot_cortex_m.c.obj           56      0         0      
       strncpy.c.obj                 54      0         0      
       fopen.c.obj                   52      0         0      
       i_tofd_t2.asm.obj             46      0         0      
       unlink.c.obj                  44      0         0      
       lseek.c.obj                   40      0         0      
       memchr.c.obj                  32      0         0      
       memccpy.c.obj                 28      0         0      
       strcmp.c.obj                  24      0         0      
       strchr.c.obj                  22      0         0      
       s_copysign.c.obj              20      0         0      
       strcpy.c.obj                  20      0         0      
       strlen.c.obj                  20      0         0      
       _lock.c.obj                   2       0         16     
       copy_zero_init.c.obj          18      0         0      
       wcslen.c.obj                  18      0         0      
       errno.c.obj                   8       0         8      
       copy_decompress_none.c.obj    14      0         0      
       pre_init.c.obj                4       0         0      
       div0.asm.obj                  2       0         0      
    +--+-----------------------------+-------+---------+---------+
       Total:                        10537   257       1896   
                                                              
       Heap:                         0       0         2048   
       Stack:                        0       0         1024   
       Linker Generated:             0       94        0      
    +--+-----------------------------+-------+---------+---------+
       Grand Total:                  12059   594       5100   


LINKER GENERATED COPY TABLES

__TI_cinit_table @ 00003170 records: 2, size/record: 8, table size: 16
	.data: load addr=00003120, load size=0000003a bytes, run addr=2000060c, run size=000001ed bytes, compression=lzss
	.bss: load addr=00003168, load size=00000008 bytes, run addr=20000400, run size=00000209 bytes, compression=zero_init


LINKER GENERATED HANDLER TABLE

__TI_handler_table @ 0000315c records: 3, size/record: 4, table size: 12
	index: 0, handler: __TI_decompress_lzss
	index: 1, handler: __TI_decompress_none
	index: 2, handler: __TI_zero_init


GLOBAL SYMBOLS: SORTED ALPHABETICALLY BY Name 

address   name                           
-------   ----                           
00002ff5  ADC14_IRQHandler               
00002ff5  AES256_IRQHandler              
00002ff5  BusFault_Handler               
0000300d  C$$EXIT                        
00002cf3  C$$IO$$                        
00002ff5  COMP_E0_IRQHandler             
00002ff5  COMP_E1_IRQHandler             
00002ff5  CS_IRQHandler                  
00000cb7  Converter                      
00002ff5  DMA_ERR_IRQHandler             
00002ff5  DMA_INT0_IRQHandler            
00002ff5  DMA_INT1_IRQHandler            
00002ff5  DMA_INT2_IRQHandler            
00002ff5  DMA_INT3_IRQHandler            
00002ff5  DebugMon_Handler               
00002ff5  Default_Handler                
00002ff5  EUSCIA0_IRQHandler             
00002ff5  EUSCIA1_IRQHandler             
00002ff5  EUSCIA2_IRQHandler             
00002ff5  EUSCIA3_IRQHandler             
00002ff5  EUSCIB0_IRQHandler             
00002ff5  EUSCIB1_IRQHandler             
00002ff5  EUSCIB2_IRQHandler             
00002ff5  EUSCIB3_IRQHandler             
00002ff5  FLCTL_IRQHandler               
00002ff5  FPU_IRQHandler                 
00002b39  HOSTclose                      
000024dd  HOSTlseek                      
000027a9  HOSTopen                       
00002865  HOSTread                       
00002545  HOSTrename                     
00002b7d  HOSTunlink                     
000028bd  HOSTwrite                      
00002ff5  HardFault_Handler              
00000d9d  I2C1_burstRead                 
00000cd3  I2C1_burstWrite                
00000d59  I2C1_init                      
00002ff5  MemManage_Handler              
00002ff5  NMI_Handler                    
00002ff5  PCM_IRQHandler                 
00002ff5  PORT1_IRQHandler               
00002ff5  PORT2_IRQHandler               
00002ff5  PORT3_IRQHandler               
00002ff5  PORT4_IRQHandler               
00002ff5  PORT5_IRQHandler               
00002ff5  PORT6_IRQHandler               
00002ff5  PSS_IRQHandler                 
00002ff5  PendSV_Handler                 
00002ff5  RTC_C_IRQHandler               
00000b8b  ReadAndPrintTime               
00000f55  Read_Keypad                    
00000bd1  RecordKeypadInput              
00002fe9  Reset_Handler                  
00002ff5  SVC_Handler                    
00000c49  StageRecordedValues            
00002ff5  SysTick_Handler                
00000b77  SystemInit                     
00002ff5  T32_INT1_IRQHandler            
00002ff5  T32_INT2_IRQHandler            
00002ff5  T32_INTC_IRQHandler            
00002ff5  TA0_0_IRQHandler               
00002ff5  TA0_N_IRQHandler               
00002ff5  TA1_0_IRQHandler               
00002ff5  TA1_N_IRQHandler               
00002ff5  TA2_0_IRQHandler               
00002ff5  TA2_N_IRQHandler               
00002ff5  TA3_0_IRQHandler               
00002ff5  TA3_N_IRQHandler               
00002ff5  UsageFault_Handler             
4000480c  WDTCTL_SYM                     
00002ff5  WDT_A_IRQHandler               
20000400  __CIOBUF_                      
20010000  __STACK_END                    
00000200  __STACK_SIZE                   
00000400  __SYSMEM_SIZE                  
00003170  __TI_CINIT_Base                
00003180  __TI_CINIT_Limit               
0000315c  __TI_Handler_Table_Base        
00003168  __TI_Handler_Table_Limit       
00002bc1  __TI_auto_init_nobinit_nopinit 
00002da5  __TI_cleanup                   
200007d4  __TI_cleanup_ptr               
000023f9  __TI_closefile                 
000025ad  __TI_decompress_lzss           
00002fdb  __TI_decompress_none           
00002a11  __TI_doflush                   
200007d8  __TI_dtors_ptr                 
200007dc  __TI_enable_exit_profile_output
200007c4  __TI_ft_end                    
ffffffff  __TI_pprof_out_hndl            
000000e5  __TI_printfi                   
ffffffff  __TI_prof_data_size            
ffffffff  __TI_prof_data_start           
00002dd9  __TI_readmsg                   
00000000  __TI_static_base__             
20000520  __TI_tmpnams                   
00002cc5  __TI_writemsg                  
00002745  __TI_wrt_ok                    
00002fb7  __TI_zero_init_nomemset        
000021f9  __aeabi_cdcmpeq                
000021f9  __aeabi_cdcmple                
0000227f  __aeabi_cdrcmple               
00002af1  __aeabi_d2iz                   
00001573  __aeabi_dadd                   
0000185d  __aeabi_ddiv                   
00001cd9  __aeabi_dmul                   
00001569  __aeabi_dsub                   
00002ff9  __aeabi_errno_addr             
00002e3d  __aeabi_i2d                    
0000171f  __aeabi_idiv0                  
0000171f  __aeabi_ldiv0                  
00002305  __aeabi_memclr                 
00002305  __aeabi_memclr4                
00002305  __aeabi_memclr8                
0000203b  __aeabi_memcpy                 
0000203b  __aeabi_memcpy4                
0000203b  __aeabi_memcpy8                
00002307  __aeabi_memset                 
00002307  __aeabi_memset4                
00002307  __aeabi_memset8                
200007d0  __aeabi_stderr                 
200007c8  __aeabi_stdin                  
200007cc  __aeabi_stdout                 
000020d7  __aeabi_uldivmod               
ffffffff  __binit__                      
ffffffff  __c_args__                     
UNDEFED   __mpu_init                     
2000fe00  __stack                        
00002cfd  _c_int00_noargs                
00003010  _ctypes_                       
200006fc  _device                        
2000060c  _ftable                        
200007ec  _lock                          
00000b43  _nop                           
20000774  _stream                        
20000000  _sys_memory                    
UNDEFED   _system_post_cinit             
00003009  _system_pre_init               
200007f0  _unlock                        
0000300d  abort                          
00002a5d  atoi                           
ffffffff  binit                          
00002809  close                          
00002f7b  copysign                       
00002f7b  copysignl                      
00000e65  delayMs                        
200007f4  errno                          
00002aa9  exit                           
00002e0d  finddevice                     
0000216d  fputc                          
00001ab5  fputs                          
00001eb1  free                           
0000267d  frexp                          
0000267d  frexpl                         
000026e1  fseek                          
00002c05  getdevice                      
200005c0  input                          
00000000  interruptVectors               
000010bb  keypad_init                    
00001bc9  ldexp                          
00001bc9  ldexpl                         
00002e99  lseek                          
0000296b  ltoa                           
00000b45  main                           
00002381  malloc                         
00002f31  memccpy                        
00002f11  memchr                         
0000203b  memcpy                         
0000230d  memset                         
00002d35  minit                          
20000608  num                            
200005f8  parmbuf                        
200007f8  pressed                        
00002615  printf                         
0000216d  putc                           
00002e6d  remove                         
00001bc9  scalbn                         
00001bc9  scalbnl                        
00001dd5  setvbuf                        
00002f65  strchr                         
00002f4d  strcmp                         
00002f8f  strcpy                         
00002fa3  strlen                         
00002d6d  strncpy                        
20000600  timeDateReadback               
00002e6d  unlink                         
00002fc9  wcslen                         
00002ee9  write                          


GLOBAL SYMBOLS: SORTED BY Symbol Address 

address   name                           
-------   ----                           
00000000  __TI_static_base__             
00000000  interruptVectors               
000000e5  __TI_printfi                   
00000200  __STACK_SIZE                   
00000400  __SYSMEM_SIZE                  
00000b43  _nop                           
00000b45  main                           
00000b77  SystemInit                     
00000b8b  ReadAndPrintTime               
00000bd1  RecordKeypadInput              
00000c49  StageRecordedValues            
00000cb7  Converter                      
00000cd3  I2C1_burstWrite                
00000d59  I2C1_init                      
00000d9d  I2C1_burstRead                 
00000e65  delayMs                        
00000f55  Read_Keypad                    
000010bb  keypad_init                    
00001569  __aeabi_dsub                   
00001573  __aeabi_dadd                   
0000171f  __aeabi_idiv0                  
0000171f  __aeabi_ldiv0                  
0000185d  __aeabi_ddiv                   
00001ab5  fputs                          
00001bc9  ldexp                          
00001bc9  ldexpl                         
00001bc9  scalbn                         
00001bc9  scalbnl                        
00001cd9  __aeabi_dmul                   
00001dd5  setvbuf                        
00001eb1  free                           
0000203b  __aeabi_memcpy                 
0000203b  __aeabi_memcpy4                
0000203b  __aeabi_memcpy8                
0000203b  memcpy                         
000020d7  __aeabi_uldivmod               
0000216d  fputc                          
0000216d  putc                           
000021f9  __aeabi_cdcmpeq                
000021f9  __aeabi_cdcmple                
0000227f  __aeabi_cdrcmple               
00002305  __aeabi_memclr                 
00002305  __aeabi_memclr4                
00002305  __aeabi_memclr8                
00002307  __aeabi_memset                 
00002307  __aeabi_memset4                
00002307  __aeabi_memset8                
0000230d  memset                         
00002381  malloc                         
000023f9  __TI_closefile                 
000024dd  HOSTlseek                      
00002545  HOSTrename                     
000025ad  __TI_decompress_lzss           
00002615  printf                         
0000267d  frexp                          
0000267d  frexpl                         
000026e1  fseek                          
00002745  __TI_wrt_ok                    
000027a9  HOSTopen                       
00002809  close                          
00002865  HOSTread                       
000028bd  HOSTwrite                      
0000296b  ltoa                           
00002a11  __TI_doflush                   
00002a5d  atoi                           
00002aa9  exit                           
00002af1  __aeabi_d2iz                   
00002b39  HOSTclose                      
00002b7d  HOSTunlink                     
00002bc1  __TI_auto_init_nobinit_nopinit 
00002c05  getdevice                      
00002cc5  __TI_writemsg                  
00002cf3  C$$IO$$                        
00002cfd  _c_int00_noargs                
00002d35  minit                          
00002d6d  strncpy                        
00002da5  __TI_cleanup                   
00002dd9  __TI_readmsg                   
00002e0d  finddevice                     
00002e3d  __aeabi_i2d                    
00002e6d  remove                         
00002e6d  unlink                         
00002e99  lseek                          
00002ee9  write                          
00002f11  memchr                         
00002f31  memccpy                        
00002f4d  strcmp                         
00002f65  strchr                         
00002f7b  copysign                       
00002f7b  copysignl                      
00002f8f  strcpy                         
00002fa3  strlen                         
00002fb7  __TI_zero_init_nomemset        
00002fc9  wcslen                         
00002fdb  __TI_decompress_none           
00002fe9  Reset_Handler                  
00002ff5  ADC14_IRQHandler               
00002ff5  AES256_IRQHandler              
00002ff5  BusFault_Handler               
00002ff5  COMP_E0_IRQHandler             
00002ff5  COMP_E1_IRQHandler             
00002ff5  CS_IRQHandler                  
00002ff5  DMA_ERR_IRQHandler             
00002ff5  DMA_INT0_IRQHandler            
00002ff5  DMA_INT1_IRQHandler            
00002ff5  DMA_INT2_IRQHandler            
00002ff5  DMA_INT3_IRQHandler            
00002ff5  DebugMon_Handler               
00002ff5  Default_Handler                
00002ff5  EUSCIA0_IRQHandler             
00002ff5  EUSCIA1_IRQHandler             
00002ff5  EUSCIA2_IRQHandler             
00002ff5  EUSCIA3_IRQHandler             
00002ff5  EUSCIB0_IRQHandler             
00002ff5  EUSCIB1_IRQHandler             
00002ff5  EUSCIB2_IRQHandler             
00002ff5  EUSCIB3_IRQHandler             
00002ff5  FLCTL_IRQHandler               
00002ff5  FPU_IRQHandler                 
00002ff5  HardFault_Handler              
00002ff5  MemManage_Handler              
00002ff5  NMI_Handler                    
00002ff5  PCM_IRQHandler                 
00002ff5  PORT1_IRQHandler               
00002ff5  PORT2_IRQHandler               
00002ff5  PORT3_IRQHandler               
00002ff5  PORT4_IRQHandler               
00002ff5  PORT5_IRQHandler               
00002ff5  PORT6_IRQHandler               
00002ff5  PSS_IRQHandler                 
00002ff5  PendSV_Handler                 
00002ff5  RTC_C_IRQHandler               
00002ff5  SVC_Handler                    
00002ff5  SysTick_Handler                
00002ff5  T32_INT1_IRQHandler            
00002ff5  T32_INT2_IRQHandler            
00002ff5  T32_INTC_IRQHandler            
00002ff5  TA0_0_IRQHandler               
00002ff5  TA0_N_IRQHandler               
00002ff5  TA1_0_IRQHandler               
00002ff5  TA1_N_IRQHandler               
00002ff5  TA2_0_IRQHandler               
00002ff5  TA2_N_IRQHandler               
00002ff5  TA3_0_IRQHandler               
00002ff5  TA3_N_IRQHandler               
00002ff5  UsageFault_Handler             
00002ff5  WDT_A_IRQHandler               
00002ff9  __aeabi_errno_addr             
00003009  _system_pre_init               
0000300d  C$$EXIT                        
0000300d  abort                          
00003010  _ctypes_                       
0000315c  __TI_Handler_Table_Base        
00003168  __TI_Handler_Table_Limit       
00003170  __TI_CINIT_Base                
00003180  __TI_CINIT_Limit               
20000000  _sys_memory                    
20000400  __CIOBUF_                      
20000520  __TI_tmpnams                   
200005c0  input                          
200005f8  parmbuf                        
20000600  timeDateReadback               
20000608  num                            
2000060c  _ftable                        
200006fc  _device                        
20000774  _stream                        
200007c4  __TI_ft_end                    
200007c8  __aeabi_stdin                  
200007cc  __aeabi_stdout                 
200007d0  __aeabi_stderr                 
200007d4  __TI_cleanup_ptr               
200007d8  __TI_dtors_ptr                 
200007dc  __TI_enable_exit_profile_output
200007ec  _lock                          
200007f0  _unlock                        
200007f4  errno                          
200007f8  pressed                        
2000fe00  __stack                        
20010000  __STACK_END                    
4000480c  WDTCTL_SYM                     
ffffffff  __TI_pprof_out_hndl            
ffffffff  __TI_prof_data_size            
ffffffff  __TI_prof_data_start           
ffffffff  __binit__                      
ffffffff  __c_args__                     
ffffffff  binit                          
UNDEFED   __mpu_init                     
UNDEFED   _system_post_cinit             

[188 symbols]
