******************************************************************************
                  TI ARM Linker PC v18.1.1                     
******************************************************************************
>> Linked Fri Oct 18 00:48:20 2019

OUTPUT FILE NAME:   <326Lab7_PartIII.out>
ENTRY POINT SYMBOL: "_c_int00_noargs"  address: 00002f99


MEMORY CONFIGURATION

         name            origin    length      used     unused   attr    fill
----------------------  --------  ---------  --------  --------  ----  --------
  MAIN                  00000000   00040000  0000344d  0003cbb3  R  X
  INFO                  00200000   00004000  00000000  00004000  R  X
  SRAM_CODE             01000000   00010000  000009ca  0000f636  RW X
  SRAM_DATA             20000000   00010000  000009ca  0000f636  RW  


SEGMENT ALLOCATION MAP

run origin  load origin   length   init length attrs members
----------  ----------- ---------- ----------- ----- -------
00000000    00000000    00003450   00003450    r-x
  00000000    00000000    000000e4   000000e4    r-- .intvecs
  000000e4    000000e4    000031c8   000031c8    r-x .text
  000032ac    000032ac    00000101   00000101    r-- .const
  000033b0    000033b0    000000a0   000000a0    r-- .cinit
20000000    20000000    000007ca   00000000    rw-
  20000000    20000000    00000400   00000000    rw- .sysmem
  20000400    20000400    000001fc   00000000    rw- .data
  200005fc    200005fc    000001ce   00000000    rw- .bss
2000fe00    2000fe00    00000200   00000000    rw-
  2000fe00    2000fe00    00000200   00000000    rw- .stack


SECTION ALLOCATION MAP

 output                                  attributes/
section   page    origin      length       input sections
--------  ----  ----------  ----------   ----------------
.intvecs   0    00000000    000000e4     
                  00000000    000000e4     startup_msp432p401r_ccs.obj (.intvecs:retain)

.text      0    000000e4    000031c8     
                  000000e4    00000a5e     rtsv7M4_T_le_v4SPD16_eabi.lib : _printfi.c.obj (.text:__TI_printfi)
                  00000b42    00000002                                   : _lock.c.obj (.text:_nop)
                  00000b44    0000054c     main.obj (.text)
                  00001090    00000334     system_msp432p401r.obj (.text)
                  000013c4    00000270     rtsv7M4_T_le_v4SPD16_eabi.lib : _printfi.c.obj (.text:_pconv_a)
                  00001634    000001d0                                   : _printfi.c.obj (.text:_pconv_g)
                  00001804    000001b6                                   : fd_add_t2.asm.obj (.text)
                  000019ba    00000002                                   : div0.asm.obj (.text)
                  000019bc    0000013c                                   : _printfi.c.obj (.text:_pconv_e)
                  00001af8    00000136                                   : fd_div_t2.asm.obj (.text)
                  00001c2e    00000002     --HOLE-- [fill = 0]
                  00001c30    00000120                                   : _printfi.c.obj (.text:fcvt)
                  00001d50    00000114                                   : fputs.c.obj (.text:fputs)
                  00001e64    00000110                                   : s_scalbn.c.obj (.text:scalbn)
                  00001f74    000000fc                                   : fd_mul_t2.asm.obj (.text)
                  00002070    000000dc                                   : setvbuf.c.obj (.text:setvbuf)
                  0000214c    000000d8                                   : memory.c.obj (.text:free)
                  00002224    000000b1                                   : _printfi.c.obj (.text:_ltostr)
                  000022d5    00000001     --HOLE-- [fill = 0]
                  000022d6    0000009c                                   : memcpy_t2.asm.obj (.text)
                  00002372    00000096                                   : ull_div_t2.asm.obj (.text)
                  00002408    0000008c                                   : fputc.c.obj (.text:fputc)
                  00002494    00000086                                   : fd_cmp_t2.asm.obj (.text:__aeabi_cdcmple)
                  0000251a    00000086                                   : fd_cmp_t2.asm.obj (.text:__aeabi_cdrcmple)
                  000025a0    0000007a                                   : memset_t2.asm.obj (.text)
                  0000261a    00000002     --HOLE-- [fill = 0]
                  0000261c    00000078                                   : memory.c.obj (.text:malloc)
                  00002694    00000074                                   : fclose.c.obj (.text:__TI_closefile)
                  00002708    0000006e                                   : _printfi.c.obj (.text:_mcpy)
                  00002776    00000002     --HOLE-- [fill = 0]
                  00002778    00000068                                   : hostlseek.c.obj (.text:HOSTlseek)
                  000027e0    00000068                                   : hostrename.c.obj (.text:HOSTrename)
                  00002848    00000068                                   : copy_decompress_lzss.c.obj (.text:decompress:lzss:__TI_decompress_lzss)
                  000028b0    00000068                                   : printf.c.obj (.text:printf)
                  00002918    00000064                                   : s_frexp.c.obj (.text:frexp)
                  0000297c    00000064                                   : fseek.c.obj (.text:fseek)
                  000029e0    00000062                                   : _io_perm.c.obj (.text:__TI_wrt_ok)
                  00002a42    00000002     --HOLE-- [fill = 0]
                  00002a44    00000060                                   : hostopen.c.obj (.text:HOSTopen)
                  00002aa4    0000005c                                   : close.c.obj (.text:close)
                  00002b00    00000058                                   : hostread.c.obj (.text:HOSTread)
                  00002b58    00000058                                   : hostwrite.c.obj (.text:HOSTwrite)
                  00002bb0    00000056                                   : _printfi.c.obj (.text:_pconv_f)
                  00002c06    00000054                                   : ltoa.c.obj (.text:ltoa)
                  00002c5a    00000052                                   : _printfi.c.obj (.text:_ecpy)
                  00002cac    0000004c                                   : fflush.c.obj (.text:__TI_doflush)
                  00002cf8    0000004c                                   : atoi.c.obj (.text:atoi)
                  00002d44    00000048                                   : exit.c.obj (.text:exit)
                  00002d8c    00000048                                   : fd_toi_t2.asm.obj (.text)
                  00002dd4    00000044                                   : hostclose.c.obj (.text:HOSTclose)
                  00002e18    00000044                                   : hostunlink.c.obj (.text:HOSTunlink)
                  00002e5c    00000044                                   : autoinit.c.obj (.text:__TI_auto_init_nobinit_nopinit:__TI_auto_init_nobinit_nopinit)
                  00002ea0    00000044                                   : getdevice.c.obj (.text:getdevice)
                  00002ee4    0000003e                                   : _printfi.c.obj (.text:_fcpy)
                  00002f22    00000002     --HOLE-- [fill = 0]
                  00002f24    0000003c                                   : memory.c.obj (.text:minsert)
                  00002f60    00000038                                   : trgmsg.c.obj (.text:__TI_writemsg)
                  00002f98    00000038                                   : boot_cortex_m.c.obj (.text:_c_int00_noargs:_c_int00_noargs)
                  00002fd0    00000038                                   : memory.c.obj (.text:minit)
                  00003008    00000036                                   : strncpy.c.obj (.text:strncpy)
                  0000303e    00000002     --HOLE-- [fill = 0]
                  00003040    00000034                                   : fopen.c.obj (.text:__TI_cleanup)
                  00003074    00000034                                   : trgmsg.c.obj (.text:__TI_readmsg)
                  000030a8    00000030                                   : getdevice.c.obj (.text:finddevice)
                  000030d8    0000002e                                   : i_tofd_t2.asm.obj (.text)
                  00003106    00000002     --HOLE-- [fill = 0]
                  00003108    0000002c                                   : unlink.c.obj (.text:unlink)
                  00003134    00000028                                   : lseek.c.obj (.text:lseek)
                  0000315c    00000028                                   : memory.c.obj (.text:mremove)
                  00003184    00000028                                   : write.c.obj (.text:write)
                  000031ac    00000020                                   : memchr.c.obj (.text:memchr)
                  000031cc    0000001c                                   : memccpy.c.obj (.text:memccpy)
                  000031e8    00000018                                   : strcmp.c.obj (.text:strcmp)
                  00003200    00000016                                   : strchr.c.obj (.text:strchr)
                  00003216    00000014                                   : s_copysign.c.obj (.text:copysign)
                  0000322a    00000014                                   : strcpy.c.obj (.text:strcpy)
                  0000323e    00000014                                   : strlen.c.obj (.text:strlen)
                  00003252    00000012                                   : copy_zero_init.c.obj (.text:decompress:ZI:__TI_zero_init_nomemset:__TI_zero_init_nomemset)
                  00003264    00000012                                   : wcslen.c.obj (.text:wcslen)
                  00003276    0000000e                                   : copy_decompress_none.c.obj (.text:decompress:none:__TI_decompress_none)
                  00003284    0000000e     startup_msp432p401r_ccs.obj (.text)
                  00003292    00000002     --HOLE-- [fill = 0]
                  00003294    00000008     rtsv7M4_T_le_v4SPD16_eabi.lib : errno.c.obj (.text:__aeabi_errno_addr)
                  0000329c    00000004                                   : printf.c.obj (.text:_outc)
                  000032a0    00000004                                   : printf.c.obj (.text:_outs)
                  000032a4    00000004                                   : pre_init.c.obj (.text:_system_pre_init)
                  000032a8    00000004                                   : exit.c.obj (.text:abort:abort)

.const     0    000032ac    00000101     
                  000032ac    00000101     rtsv7M4_T_le_v4SPD16_eabi.lib : ctype.c.obj (.const:.string:_ctypes_)

.cinit     0    000033b0    000000a0     
                  000033b0    00000076     (.cinit..data.load) [load image, compression = lzss]
                  00003426    00000002     --HOLE-- [fill = 0]
                  00003428    0000000c     (__TI_handler_table)
                  00003434    00000004     --HOLE-- [fill = 0]
                  00003438    00000008     (.cinit..bss.load) [load image, compression = zero_init]
                  00003440    00000010     (__TI_cinit_table)

.init_array 
*          0    00000000    00000000     UNINITIALIZED

.binit     0    00000000    00000000     

.sysmem    0    20000000    00000400     UNINITIALIZED
                  20000000    00000008     rtsv7M4_T_le_v4SPD16_eabi.lib : memory.c.obj (.sysmem)
                  20000008    000003f8     --HOLE--

.data      0    20000400    000001fc     UNINITIALIZED
                  20000400    000000f0     rtsv7M4_T_le_v4SPD16_eabi.lib : defs.c.obj (.data:_ftable)
                  200004f0    00000078                                   : write.c.obj (.data:_device)
                  20000568    00000050                                   : write.c.obj (.data:_stream)
                  200005b8    00000010                                   : defs.c.obj (.data)
                  200005c8    0000000c                                   : exit.c.obj (.data:$O1$$)
                  200005d4    0000000c                                   : memory.c.obj (.data:$O1$$)
                  200005e0    0000000a     main.obj (.data)
                  200005ea    00000002     --HOLE--
                  200005ec    00000008     rtsv7M4_T_le_v4SPD16_eabi.lib : _lock.c.obj (.data:$O1$$)
                  200005f4    00000004                                   : errno.c.obj (.data)
                  200005f8    00000004     system_msp432p401r.obj (.data)

.bss       0    200005fc    000001ce     UNINITIALIZED
                  200005fc    00000120     rtsv7M4_T_le_v4SPD16_eabi.lib : trgmsg.c.obj (.bss:_CIOBUF_)
                  2000071c    000000a0     (.common:__TI_tmpnams)
                  200007bc    00000008     (.common:parmbuf)
                  200007c4    00000004     (.common:input)
                  200007c8    00000001     (.common:TXData)
                  200007c9    00000001     (.common:num)

.stack     0    2000fe00    00000200     UNINITIALIZED
                  2000fe00    00000004     rtsv7M4_T_le_v4SPD16_eabi.lib : boot_cortex_m.c.obj (.stack)
                  2000fe04    000001fc     --HOLE--

MODULE SUMMARY

       Module                        code    ro data   rw data
       ------                        ----    -------   -------
    .\
       main.obj                      1356    0         32     
       system_msp432p401r.obj        820     0         8      
       startup_msp432p401r_ccs.obj   14      228       0      
    +--+-----------------------------+-------+---------+---------+
       Total:                        2190    228       40     
                                                              
    C:\ti\ccsv7\tools\compiler\ti-cgt-arm_18.1.1.LTS\lib\rtsv7M4_T_le_v4SPD16_eabi.lib
       _printfi.c.obj                4863    0         0      
       defs.c.obj                    0       0         832    
       trgmsg.c.obj                  108     0         576    
       memory.c.obj                  492     0         24     
       write.c.obj                   40      0         400    
       fd_add_t2.asm.obj             438     0         0      
       fd_div_t2.asm.obj             310     0         0      
       fputs.c.obj                   276     0         0      
       s_scalbn.c.obj                272     0         0      
       fd_cmp_t2.asm.obj             268     0         0      
       ctype.c.obj                   0       257       0      
       fd_mul_t2.asm.obj             252     0         0      
       setvbuf.c.obj                 220     0         0      
       memcpy_t2.asm.obj             156     0         0      
       ull_div_t2.asm.obj            150     0         0      
       fputc.c.obj                   140     0         0      
       memset_t2.asm.obj             122     0         0      
       fclose.c.obj                  116     0         0      
       getdevice.c.obj               116     0         0      
       hostopen.c.obj                96      0         16     
       printf.c.obj                  112     0         0      
       copy_decompress_lzss.c.obj    104     0         0      
       hostlseek.c.obj               104     0         0      
       hostrename.c.obj              104     0         0      
       exit.c.obj                    76      0         24     
       fseek.c.obj                   100     0         0      
       s_frexp.c.obj                 100     0         0      
       _io_perm.c.obj                98      0         0      
       close.c.obj                   92      0         0      
       hostread.c.obj                88      0         0      
       hostwrite.c.obj               88      0         0      
       ltoa.c.obj                    84      0         0      
       atoi.c.obj                    76      0         0      
       fflush.c.obj                  76      0         0      
       fd_toi_t2.asm.obj             72      0         0      
       autoinit.c.obj                68      0         0      
       hostclose.c.obj               68      0         0      
       hostunlink.c.obj              68      0         0      
       boot_cortex_m.c.obj           56      0         0      
       strncpy.c.obj                 54      0         0      
       fopen.c.obj                   52      0         0      
       i_tofd_t2.asm.obj             46      0         0      
       unlink.c.obj                  44      0         0      
       lseek.c.obj                   40      0         0      
       memchr.c.obj                  32      0         0      
       memccpy.c.obj                 28      0         0      
       strcmp.c.obj                  24      0         0      
       strchr.c.obj                  22      0         0      
       s_copysign.c.obj              20      0         0      
       strcpy.c.obj                  20      0         0      
       strlen.c.obj                  20      0         0      
       _lock.c.obj                   2       0         16     
       copy_zero_init.c.obj          18      0         0      
       wcslen.c.obj                  18      0         0      
       errno.c.obj                   8       0         8      
       copy_decompress_none.c.obj    14      0         0      
       pre_init.c.obj                4       0         0      
       div0.asm.obj                  2       0         0      
    +--+-----------------------------+-------+---------+---------+
       Total:                        10537   257       1896   
                                                              
       Heap:                         0       0         2048   
       Stack:                        0       0         1024   
       Linker Generated:             0       154       0      
    +--+-----------------------------+-------+---------+---------+
       Grand Total:                  12727   639       5008   


LINKER GENERATED COPY TABLES

__TI_cinit_table @ 00003440 records: 2, size/record: 8, table size: 16
	.data: load addr=000033b0, load size=00000076 bytes, run addr=20000400, run size=000001fc bytes, compression=lzss
	.bss: load addr=00003438, load size=00000008 bytes, run addr=200005fc, run size=000001ce bytes, compression=zero_init


LINKER GENERATED HANDLER TABLE

__TI_handler_table @ 00003428 records: 3, size/record: 4, table size: 12
	index: 0, handler: __TI_decompress_lzss
	index: 1, handler: __TI_decompress_none
	index: 2, handler: __TI_zero_init


GLOBAL SYMBOLS: SORTED ALPHABETICALLY BY Name 

address   name                           
-------   ----                           
00003291  ADC14_IRQHandler               
00003291  AES256_IRQHandler              
00003291  BusFault_Handler               
00000d45  Button6Debounce                
00000d7b  Button7Debounce                
000032a9  C$$EXIT                        
00002f8f  C$$IO$$                        
00003291  COMP_E0_IRQHandler             
00003291  COMP_E1_IRQHandler             
00003291  CS_IRQHandler                  
00003291  DMA_ERR_IRQHandler             
00003291  DMA_INT0_IRQHandler            
00003291  DMA_INT1_IRQHandler            
00003291  DMA_INT2_IRQHandler            
00003291  DMA_INT3_IRQHandler            
00003291  DebugMon_Handler               
00003291  Default_Handler                
00003291  EUSCIA0_IRQHandler             
00003291  EUSCIA1_IRQHandler             
00003291  EUSCIA2_IRQHandler             
00003291  EUSCIA3_IRQHandler             
00000c7f  EUSCIB0_IRQHandler             
00000c7f  EUSCIB0_IRQHandler             
00003291  EUSCIB1_IRQHandler             
00003291  EUSCIB2_IRQHandler             
00003291  EUSCIB3_IRQHandler             
00003291  FLCTL_IRQHandler               
00003291  FPU_IRQHandler                 
00002dd5  HOSTclose                      
00002779  HOSTlseek                      
00002a45  HOSTopen                       
00002b01  HOSTread                       
000027e1  HOSTrename                     
00002e19  HOSTunlink                     
00002b59  HOSTwrite                      
00003291  HardFault_Handler              
00000c49  I2C_Init                       
00003291  MemManage_Handler              
00003291  NMI_Handler                    
00003291  PCM_IRQHandler                 
00003291  PORT1_IRQHandler               
00000d09  PORT2_IRQHandler               
00000d09  PORT2_IRQHandler               
00003291  PORT3_IRQHandler               
00003291  PORT4_IRQHandler               
00003291  PORT5_IRQHandler               
00003291  PORT6_IRQHandler               
00003291  PSS_IRQHandler                 
00003291  PendSV_Handler                 
00000caf  Port1_Init                     
00000cbb  Port2_Init                     
00003291  RTC_C_IRQHandler               
00000e3d  Read_Keypad                    
00003285  Reset_Handler                  
00003291  SVC_Handler                    
00003291  SysTick_Handler                
00000ff9  SysTick_Init                   
00001019  SysTick_delay                  
200005f8  SystemCoreClock                
00001091  SystemCoreClockUpdate          
00001309  SystemInit                     
00000c0f  System_Init                    
00003291  T32_INT1_IRQHandler            
00003291  T32_INT2_IRQHandler            
00003291  T32_INTC_IRQHandler            
00003291  TA0_0_IRQHandler               
00003291  TA0_N_IRQHandler               
00003291  TA1_0_IRQHandler               
00003291  TA1_N_IRQHandler               
00003291  TA2_0_IRQHandler               
00003291  TA2_N_IRQHandler               
00003291  TA3_0_IRQHandler               
00003291  TA3_N_IRQHandler               
200007c8  TXData                         
00003291  UsageFault_Handler             
4000480c  WDTCTL_SYM                     
00003291  WDT_A_IRQHandler               
200005fc  __CIOBUF_                      
20010000  __STACK_END                    
00000200  __STACK_SIZE                   
00000400  __SYSMEM_SIZE                  
00003440  __TI_CINIT_Base                
00003450  __TI_CINIT_Limit               
00003428  __TI_Handler_Table_Base        
00003434  __TI_Handler_Table_Limit       
00002e5d  __TI_auto_init_nobinit_nopinit 
00003041  __TI_cleanup                   
200005c8  __TI_cleanup_ptr               
00002695  __TI_closefile                 
00002849  __TI_decompress_lzss           
00003277  __TI_decompress_none           
00002cad  __TI_doflush                   
200005cc  __TI_dtors_ptr                 
200005d0  __TI_enable_exit_profile_output
200005b8  __TI_ft_end                    
ffffffff  __TI_pprof_out_hndl            
000000e5  __TI_printfi                   
ffffffff  __TI_prof_data_size            
ffffffff  __TI_prof_data_start           
00003075  __TI_readmsg                   
00000000  __TI_static_base__             
2000071c  __TI_tmpnams                   
00002f61  __TI_writemsg                  
000029e1  __TI_wrt_ok                    
00003253  __TI_zero_init_nomemset        
00002495  __aeabi_cdcmpeq                
00002495  __aeabi_cdcmple                
0000251b  __aeabi_cdrcmple               
00002d8d  __aeabi_d2iz                   
0000180f  __aeabi_dadd                   
00001af9  __aeabi_ddiv                   
00001f75  __aeabi_dmul                   
00001805  __aeabi_dsub                   
00003295  __aeabi_errno_addr             
000030d9  __aeabi_i2d                    
000019bb  __aeabi_idiv0                  
000019bb  __aeabi_ldiv0                  
000025a1  __aeabi_memclr                 
000025a1  __aeabi_memclr4                
000025a1  __aeabi_memclr8                
000022d7  __aeabi_memcpy                 
000022d7  __aeabi_memcpy4                
000022d7  __aeabi_memcpy8                
000025a3  __aeabi_memset                 
000025a3  __aeabi_memset4                
000025a3  __aeabi_memset8                
200005c4  __aeabi_stderr                 
200005bc  __aeabi_stdin                  
200005c0  __aeabi_stdout                 
00002373  __aeabi_uldivmod               
ffffffff  __binit__                      
ffffffff  __c_args__                     
UNDEFED   __mpu_init                     
2000fe00  __stack                        
00002f99  _c_int00_noargs                
000032ac  _ctypes_                       
200004f0  _device                        
20000400  _ftable                        
200005ec  _lock                          
00000b43  _nop                           
20000568  _stream                        
20000000  _sys_memory                    
UNDEFED   _system_post_cinit             
000032a5  _system_pre_init               
200005f0  _unlock                        
000032a9  abort                          
00002cf9  atoi                           
ffffffff  binit                          
200005e0  button6Flag                    
200005e1  button7Flag                    
00002aa5  close                          
00003217  copysign                       
00003217  copysignl                      
00000db1  delayMs                        
200005e4  direction                      
200005f4  errno                          
00002d45  exit                           
000030a9  finddevice                     
00002409  fputc                          
00001d51  fputs                          
0000214d  free                           
00002919  frexp                          
00002919  frexpl                         
0000297d  fseek                          
00002ea1  getdevice                      
200007c4  input                          
00000000  interruptVectors               
00000fb1  keypad_init                    
00001e65  ldexp                          
00001e65  ldexpl                         
00003135  lseek                          
00002c07  ltoa                           
00000b71  main                           
0000261d  malloc                         
000031cd  memccpy                        
000031ad  memchr                         
000022d7  memcpy                         
000025a9  memset                         
00002fd1  minit                          
200007c9  num                            
200007bc  parmbuf                        
200005e3  pressed                        
000028b1  printf                         
00002409  putc                           
00003109  remove                         
00001e65  scalbn                         
00001e65  scalbnl                        
00002071  setvbuf                        
200005e2  slaveComplete                  
00003201  strchr                         
000031e9  strcmp                         
0000322b  strcpy                         
0000323f  strlen                         
00003009  strncpy                        
00003109  unlink                         
00003265  wcslen                         
00003185  write                          


GLOBAL SYMBOLS: SORTED BY Symbol Address 

address   name                           
-------   ----                           
00000000  __TI_static_base__             
00000000  interruptVectors               
000000e5  __TI_printfi                   
00000200  __STACK_SIZE                   
00000400  __SYSMEM_SIZE                  
00000b43  _nop                           
00000b71  main                           
00000c0f  System_Init                    
00000c49  I2C_Init                       
00000c7f  EUSCIB0_IRQHandler             
00000c7f  EUSCIB0_IRQHandler             
00000caf  Port1_Init                     
00000cbb  Port2_Init                     
00000d09  PORT2_IRQHandler               
00000d09  PORT2_IRQHandler               
00000d45  Button6Debounce                
00000d7b  Button7Debounce                
00000db1  delayMs                        
00000e3d  Read_Keypad                    
00000fb1  keypad_init                    
00000ff9  SysTick_Init                   
00001019  SysTick_delay                  
00001091  SystemCoreClockUpdate          
00001309  SystemInit                     
00001805  __aeabi_dsub                   
0000180f  __aeabi_dadd                   
000019bb  __aeabi_idiv0                  
000019bb  __aeabi_ldiv0                  
00001af9  __aeabi_ddiv                   
00001d51  fputs                          
00001e65  ldexp                          
00001e65  ldexpl                         
00001e65  scalbn                         
00001e65  scalbnl                        
00001f75  __aeabi_dmul                   
00002071  setvbuf                        
0000214d  free                           
000022d7  __aeabi_memcpy                 
000022d7  __aeabi_memcpy4                
000022d7  __aeabi_memcpy8                
000022d7  memcpy                         
00002373  __aeabi_uldivmod               
00002409  fputc                          
00002409  putc                           
00002495  __aeabi_cdcmpeq                
00002495  __aeabi_cdcmple                
0000251b  __aeabi_cdrcmple               
000025a1  __aeabi_memclr                 
000025a1  __aeabi_memclr4                
000025a1  __aeabi_memclr8                
000025a3  __aeabi_memset                 
000025a3  __aeabi_memset4                
000025a3  __aeabi_memset8                
000025a9  memset                         
0000261d  malloc                         
00002695  __TI_closefile                 
00002779  HOSTlseek                      
000027e1  HOSTrename                     
00002849  __TI_decompress_lzss           
000028b1  printf                         
00002919  frexp                          
00002919  frexpl                         
0000297d  fseek                          
000029e1  __TI_wrt_ok                    
00002a45  HOSTopen                       
00002aa5  close                          
00002b01  HOSTread                       
00002b59  HOSTwrite                      
00002c07  ltoa                           
00002cad  __TI_doflush                   
00002cf9  atoi                           
00002d45  exit                           
00002d8d  __aeabi_d2iz                   
00002dd5  HOSTclose                      
00002e19  HOSTunlink                     
00002e5d  __TI_auto_init_nobinit_nopinit 
00002ea1  getdevice                      
00002f61  __TI_writemsg                  
00002f8f  C$$IO$$                        
00002f99  _c_int00_noargs                
00002fd1  minit                          
00003009  strncpy                        
00003041  __TI_cleanup                   
00003075  __TI_readmsg                   
000030a9  finddevice                     
000030d9  __aeabi_i2d                    
00003109  remove                         
00003109  unlink                         
00003135  lseek                          
00003185  write                          
000031ad  memchr                         
000031cd  memccpy                        
000031e9  strcmp                         
00003201  strchr                         
00003217  copysign                       
00003217  copysignl                      
0000322b  strcpy                         
0000323f  strlen                         
00003253  __TI_zero_init_nomemset        
00003265  wcslen                         
00003277  __TI_decompress_none           
00003285  Reset_Handler                  
00003291  ADC14_IRQHandler               
00003291  AES256_IRQHandler              
00003291  BusFault_Handler               
00003291  COMP_E0_IRQHandler             
00003291  COMP_E1_IRQHandler             
00003291  CS_IRQHandler                  
00003291  DMA_ERR_IRQHandler             
00003291  DMA_INT0_IRQHandler            
00003291  DMA_INT1_IRQHandler            
00003291  DMA_INT2_IRQHandler            
00003291  DMA_INT3_IRQHandler            
00003291  DebugMon_Handler               
00003291  Default_Handler                
00003291  EUSCIA0_IRQHandler             
00003291  EUSCIA1_IRQHandler             
00003291  EUSCIA2_IRQHandler             
00003291  EUSCIA3_IRQHandler             
00003291  EUSCIB1_IRQHandler             
00003291  EUSCIB2_IRQHandler             
00003291  EUSCIB3_IRQHandler             
00003291  FLCTL_IRQHandler               
00003291  FPU_IRQHandler                 
00003291  HardFault_Handler              
00003291  MemManage_Handler              
00003291  NMI_Handler                    
00003291  PCM_IRQHandler                 
00003291  PORT1_IRQHandler               
00003291  PORT3_IRQHandler               
00003291  PORT4_IRQHandler               
00003291  PORT5_IRQHandler               
00003291  PORT6_IRQHandler               
00003291  PSS_IRQHandler                 
00003291  PendSV_Handler                 
00003291  RTC_C_IRQHandler               
00003291  SVC_Handler                    
00003291  SysTick_Handler                
00003291  T32_INT1_IRQHandler            
00003291  T32_INT2_IRQHandler            
00003291  T32_INTC_IRQHandler            
00003291  TA0_0_IRQHandler               
00003291  TA0_N_IRQHandler               
00003291  TA1_0_IRQHandler               
00003291  TA1_N_IRQHandler               
00003291  TA2_0_IRQHandler               
00003291  TA2_N_IRQHandler               
00003291  TA3_0_IRQHandler               
00003291  TA3_N_IRQHandler               
00003291  UsageFault_Handler             
00003291  WDT_A_IRQHandler               
00003295  __aeabi_errno_addr             
000032a5  _system_pre_init               
000032a9  C$$EXIT                        
000032a9  abort                          
000032ac  _ctypes_                       
00003428  __TI_Handler_Table_Base        
00003434  __TI_Handler_Table_Limit       
00003440  __TI_CINIT_Base                
00003450  __TI_CINIT_Limit               
20000000  _sys_memory                    
20000400  _ftable                        
200004f0  _device                        
20000568  _stream                        
200005b8  __TI_ft_end                    
200005bc  __aeabi_stdin                  
200005c0  __aeabi_stdout                 
200005c4  __aeabi_stderr                 
200005c8  __TI_cleanup_ptr               
200005cc  __TI_dtors_ptr                 
200005d0  __TI_enable_exit_profile_output
200005e0  button6Flag                    
200005e1  button7Flag                    
200005e2  slaveComplete                  
200005e3  pressed                        
200005e4  direction                      
200005ec  _lock                          
200005f0  _unlock                        
200005f4  errno                          
200005f8  SystemCoreClock                
200005fc  __CIOBUF_                      
2000071c  __TI_tmpnams                   
200007bc  parmbuf                        
200007c4  input                          
200007c8  TXData                         
200007c9  num                            
2000fe00  __stack                        
20010000  __STACK_END                    
4000480c  WDTCTL_SYM                     
ffffffff  __TI_pprof_out_hndl            
ffffffff  __TI_prof_data_size            
ffffffff  __TI_prof_data_start           
ffffffff  __binit__                      
ffffffff  __c_args__                     
ffffffff  binit                          
UNDEFED   __mpu_init                     
UNDEFED   _system_post_cinit             

[197 symbols]
